:020000040800F2
:10000000D0130020DD010008E5010008E701000829
:10001000E9010008EB010008ED0100080000000004
:10002000000000000000000000000000EF010008D8
:10003000F101000800000000F3010008F5010008CC
:10004000F7010008F7010008F7010008F7010008B0
:10005000F7010008F7010008F7010008F7010008A0
:10006000F7010008F7010008F7010008F701000890
:10007000F7010008F7010008F7010008B31B0008AA
:10008000F7010008F7010008F7010008F701000870
:10009000F7010008F7010008F7010008F701000860
:1000A000F7010008F7010008F7010008F701000850
:1000B000F7010008F7010008F7010008F701000840
:1000C000F7010008F7010008F7010008F701000830
:1000D000F7010008F7010008F7010008F701000820
:1000E000F7010008F7010008F7010008F701000810
:1000F000F7010008F7010008F7010008F701000800
:10010000F7010008F7010008F7010008F7010008EF
:10011000F7010008F7010008F7010008F7010008DF
:10012000F7010008F7010008F7010008F7010008CF
:1001300000F002F800F042F80AA090E8000C8244B7
:100140008344AAF10107DA4501D100F037F8AFF294
:10015000090EBAE80F0013F0010F18BFFB1A43F0A5
:1001600001031847383F0000583F0000103A24BFF1
:1001700078C878C1FAD8520724BF30C830C144BF0C
:1001800004680C607047000000230024002500264E
:10019000103A28BF78C1FBD8520728BF30C148BFEA
:1001A0000B607047642903F06583632903F03A8488
:1001B000002070471FB51FBD10B510BD03F06CFCCB
:1001C0001146FFF7F7FF00F00DF903F08AFC03B4C6
:1001D000FFF7F2FF03BC00F077FA00000948804700
:1001E00009480047FEE7FEE7FEE7FEE7FEE7FEE719
:1001F000FEE7FEE7FEE7FEE704480549054A064B31
:1002000070470000E502000831010008D00D002011
:10021000D0130020D00F0020D00F0020002100209C
:10022000674A126842F48032654B1A6000BF644A24
:10023000126802F40030491C10B9B1F5A06FF6D174
:100240005F4A126812F4003F01D0012000E0002054
:10025000012842D15B4A126842F01002594B1A60E1
:100260001A46126822F003021A601A46126842F017
:1002700002021A60524A5268514B5A601A4652683A
:100280005A601A46526842F480625A601A465268AE
:1002900022F47C125A601A46526842F4E8125A60FC
:1002A0001A46126842F080721A6000BF444A12680F
:1002B00012F0007FFAD0424A526822F00302404B0B
:1002C0005A601A46526842F002025A6000BF3C4A25
:1002D000526802F00C02082AF9D1704710B5FFF7F6
:1002E0009DFF10BD10B53648006840F0010034494C
:1002F000086008464068344908403149486008466B
:100300000068324908402E4908600846006820F419
:10031000802008600846406820F4FE0048604FF4E2
:100320001F008860FFF7DAFF4FF00060284908607F
:1003300010BD10B5002100200022214B5B6803F0A6
:100340000C0121B1042906D0082928D107E0214B4E
:10035000214C236027E01F4B1F4C236023E0184BE8
:100360005B6803F47010164B5B6803F48032022361
:1003700003EB904022B9194B4343174C23600DE027
:100380000F4B5B6813F4003F04D0144B4343124CF3
:10039000236003E00F4B43430F4C236003E00D4BFE
:1003A0000D4C236000BF00BF054B5B68C3F3031314
:1003B0000B4CE15C084B1B68CB40074C236010BD25
:1003C00000100240002002400000FFF8FFFFF6FE90
:1003D00008ED00E000127A000000002000093D0056
:1003E000040000200EB50020019000900026FFF7C9
:1003F00079FF4FF4E06002F03BFB0F208DF808001E
:1004000000208DF809008DF80A0001208DF80B00FE
:1004100002A802F032FB482000F000F94FF4165118
:10042000482000F05FF900F0D9F900F0B9F901F0C7
:1004300013FA074601F034FB4AF6444001F050FB42
:100440001EE059A003F0ACF92A2F02D059A003F006
:10045000A7F94FF4FA7000F0FCF801F017FC8046A1
:10046000414657A003F09CF94FF4FA7000F0F1F800
:100470005448006808B9012000E000205149086094
:1004800001F004FC0028DCD14FA003F089F916E04C
:1004900050A003F085F94FF4FA7000F0DAF801F09B
:1004A000F5FB00F0A9FC4748006808B9012000E00E
:1004B0000020444908604FF4FA7000F0CAF80120A7
:1004C00002F0DCF80028E3D146A003F069F94FF40C
:1004D0007A7000F0BEF84748006847490860FE207F
:1004E000464908705FE00020019001AB4FF4806244
:1004F00029464148006801F038FEBDF8040088B97B
:100500000FE0304606EBD0714910B6EB410102D145
:100510003BA003F045F9701C86B24FF4967000F0D2
:1005200098F8EEE7394D012000903AE06B464FF421
:10053000806229463048006801F017FE05F1080086
:1005400003F02EF932A003F02BF9284602F098F9B7
:1005500000F05FF90446012C00D123E0022C0FD1FA
:10056000BDF80000012805DDBDF80000801E80B246
:10057000009004E0BDF80400401E80B2009011E03D
:100580004FF4FA7000F065F8BDF80000401C80B22E
:100590000090BDF80000BDF80410884201DD012084
:1005A0000090C3E700BF9EE76661742077726F6EAC
:1005B0006700000053442077726F6E6721000000CF
:1005C000256300008C01214246415420696E697404
:1005D0000A00000063616E27742066696E642066FD
:1005E000696C6500737461727420746F20706C6143
:1005F000790A0000CC000020C8000020D4000020B0
:100600004E6F205741562066696C6500A801002096
:1006100020BDE2C2EBBFAACABC0A00004FF0E02135
:10062000096921F004014FF0E0221161C21700EBCB
:100630005272D210224B1A701946097801EB41020E
:10064000C2EBC1114FF6FF7202EAC1011D4A1180CF
:10065000704701461B4A12884A434FF0E0235A6113
:1006600000229A6101221A6100BF4FF0E022106956
:1006700010F0010F02D010F4803FF6D000224FF0AE
:10068000E0231A619A61704701460D4A12784A4385
:100690004FF0E0235A6100229A6101221A6100BFE3
:1006A0004FF0E022106910F0010F02D010F4803FEB
:1006B000F6D000224FF0E0231A619A6170470000E3
:1006C000180000201A000020014600BF7047C2B287
:1006D0002E4B1A8000BF2D4A121F128812F0400FB5
:1006E000F9D070472DE9F05F05460E46300103F062
:1006F00047FB8146264905FB01F003F041FB82469A
:10070000494603F05BFA0746384603F019FB84B20A
:10071000204603F035FB8346394603F011FC824640
:100720004FF0834103F040FB814603F009FB804614
:100730004FF6FF7000EA041404EB080084B2154879
:10074000806940F00400134988610846806940F4DC
:10075000804088611048114908600E48C06840F424
:1007600080400C49C8600846C06820F48040C860DA
:100770000648001D0480001D008842F20C01084359
:10078000024908310880BDE8F09F000004380140AC
:1007900040420F0000100240B444444404080140A9
:1007A0000C48806940F004000A4988610A480068E2
:1007B00020F47040084908600846006840F4405042
:1007C000086005480C30006840F0080002490C3110
:1007D0000860704700100240000801402C48806902
:1007E00040F040002A4988612A4800682A490840A8
:1007F00028490860084600682849084325490860D8
:1008000024480C30006840F03C0022490C3108605C
:10081000704710B52248007828B32248006840B1DC
:100820002148006828B12148006810B120480068BC
:10083000C8B90A20FFF70DFF0020194908701948B0
:10084000006808B9012010BD1748006808B90220E7
:10085000F9E71648006808B90320F4E7144800686F
:1008600098B90420EFE70F48006801280DD10E4821
:100870000068012809D10D480068012805D10C48FD
:100880000068012801D1064908700020DBE700005C
:100890000010024000180140FF0000FF008888009F
:1008A00020000020080123420C01234210012342B2
:1008B0001401234210B502460020264B264C23602B
:1008C000254B40331B680023234C403423602346D0
:1008D000186847F6F073984342F69023184323466E
:1008E00018608B08241D23601C4B241D2360231DCE
:1008F0001A60194B40331B6843F00103164C403417
:10090000236010BD10B502460020124B124C23602C
:10091000114B40331B6800230F4C403423602346A7
:10092000186847F6F073984340F42A50234618603D
:100930008B08241D2360094B241D2360231D1A608E
:10094000054B40331B6843F00103034C40342360E4
:1009500010BD000000F0001004040240808001403F
:10096000FE48416B01E0FD48416B11F0450FFAD0A4
:1009700011F0040F04D00420F84A9063032070475C
:1009800011F0010F03D00120F44A9063F7E740F221
:10099000FF50F24A90632A20F1E710B50346002089
:1009A000EE4CA360E0686FF30A0041EA020444F4ED
:1009B00080642043E94CE06010BD30B503460C462E
:1009C000E648426B01E0E548426B12F0450FFAD071
:1009D00012F0040F04D00420E04DA863032030BDC2
:1009E00012F0010F03D00120DC4DA863F7E7DB48CC
:1009F0000069C0B2984201D01020F0E740F2FF50E9
:100A0000D64DA8632846416911F4604F03D1080C04
:100A100020802A20E3E711F4005F01D01320DEE7F5
:100A200011F4804F01D01020D9E711F4004F01D00C
:100A30000F20D4E72A20D2E708B501200090C7484C
:100A4000006810F0030F01D1252008BDC4480068DC
:100A5000042818D0C02202210020FFF79EFFFFF7D4
:100A60007FFF2A2802D0FFF77BFFEEE7BB484069F3
:100A7000BC490860B94880694860B848C069886066
:100A8000B648006AC860B648006858B1B448006803
:100A9000012807D0B2480068062803D0B048006893
:100AA00002280FD1402203210020FFF776FF69467C
:100AB0000320FFF782FF2A2804D069460320FFF7AE
:100AC0007CFFC2E7A648006804281ED0BDF80000DD
:100AD000A5490860BDF800100804C0220921FFF7ED
:100AE0005CFFFFF73DFF2A2802D0FFF739FFACE794
:100AF0009A4840699D4908609848806948609748CD
:100B0000C06988609548006AC8602A209DE79348BC
:100B1000416B01E09148416B11F0450FFAD011F0A3
:100B2000040F04D004208D4A90630320704740F2E4
:100B3000FF508A4A90632A20F8E710B50346874899
:100B4000426B01E08548426B12F0450FFAD012F07B
:100B5000040F04D00420814CA063032010BD12F0C8
:100B6000010F03D001207D4CA063F7E77B480069AB
:100B7000C0B2984201D01020F0E740F2FF50774C0D
:100B8000A063204641697A48014201D12A20E5E765
:100B900011F0004F01D01C20E0E711F0804F01D090
:100BA0000920DBE711F0005F01D00A20D6E711F041
:100BB000805F01D00B20D1E711F0006F01D00C2035
:100BC000CCE711F0806F01D00D20C7E711F0807FD6
:100BD00001D00E20C2E711F4000F01D00F20BDE7B5
:100BE00011F4800F01D01020B8E711F4001F01D0DC
:100BF0001120B3E711F4801F01D01220AEE711F4E9
:100C0000002F01D01320A9E711F4802F01D0142068
:100C1000A4E711F4003F01D015209FE711F4803FB5
:100C200001D016209AE711F4004F01D0172095E764
:100C300011F4804F01D0182090E711F4005F01D02B
:100C400019208BE711F0080F01D01A2086E72A201F
:100C500084E742F210724148416B02E0521E3F4865
:100C6000416B11F0450F01D1002AF7D112B111F0FB
:100C7000040F04D00420394B98630320704711F00F
:100C8000400F04D04020354B98632A20F6E72A20F5
:100C9000F4E701460020314A526B0A4203D001209A
:100CA0002E4A916300E00020704700B542F21073B5
:100CB00000E05B1E23B18020FFF7EBFF0028F8D097
:100CC0000BB9032000BD40F2FF50244988632A205D
:100CD000F8E70A460021214B596847F6FF6399431C
:100CE00040EA020319431D4B596070472DE9F0415A
:100CF00000250024002600270021B220FFF7E9FF8D
:100D00001648006820F0030014490860084600688F
:100D100040F0030008600120164908604FF000020F
:100D200011461046FFF739FEFFF7BFFF2A2803D010
:100D3000FFF7BBFFBDE8F081402208214FF4D570DA
:100D4000FFF72BFEFFF785FF2A2803D10120044976
:100D5000086087074022372100200DE00080014015
:100D6000240000200401002028000020F4000020BE
:100D700008E0FFFDA0003042FFF70FFE3720FFF72D
:100D8000DCFE2A2836D123E0402237210020FFF75D
:100D900004FE3720FFF7D1FE2A2803D03720FFF7C3
:100DA000CCFEC7E7FE4947EA010040222921FFF7B0
:100DB000F4FDFFF7ACFE2A2802D0FFF7A8FEB9E742
:100DC000F8484569012080EAD57080F00106641C6E
:100DD0001EB94FF6FF708442D6D34FF6FF7084429F
:100DE00001D31B20A6E705F08040050002D00220B9
:100DF000ED4908602A209DE710B52A24EB48806958
:100E000040F01000E94988610846806940F0200000
:100E100088610846406940F480604861084640693E
:100E200040F002004861E24840686FF31300E04977
:100E3000486008464068DF490843DD494860084685
:100E4000C06840F4F850C860DB48006820F4706067
:100E5000D94908600846006840F430600860D64808
:100E60000C30006840F00400D3490C3108600020C9
:100E7000CC49086048608860C86048628862C8627F
:100E8000CE4888630020C863FFF730FF04462A2C51
:100E900001D0204610BDFFF7CFFD04462A2C01D01B
:100EA0002046F7E72046F5E7BE48006820F003003B
:100EB000BC4908600846006808602A20704710B5E1
:100EC00001460022B848007881F84E00BC480088EE
:100ED000A1F84C00BB480068020E90090870C2F3EC
:100EE0008300487002F003008870B6480068C0F3C1
:100EF0000742CA70B3480088C0F307220A71B1489C
:100F000002784A714068020E1001C880AD484068FE
:100F1000C0F30742C88840EA1210C88002F00F00F0
:100F20000872A8488088C0F30722D0094872C2F32B
:100F300080108872C2F34010C872C2F300100873A8
:100F40009948006818B19848006801283CD190077A
:100F5000000D08619B480279086940EA8200086137
:100F600098488068020E086940EA92100861C2F34E
:100F7000C200087502F00700487592488068C0F307
:100F8000074250098875C2F38200C8759007400F68
:100F900008768C480089C0F30722087E40EAD21008
:100FA00008760869401C48640B7E486C9B1C012431
:100FB0009C40604348640B7A012098408864D1E9E2
:100FC00011035843486421E07748006802281DD186
:100FD0007C4802799006800A08617A488068020E8F
:100FE000086940EA0220086176488068C0F3074239
:100FF00008691043086173480089C0F30722086933
:10100000401CC00448644FF400708864C2F3801030
:1010100001F8190F9006400E48706A48027A487825
:1010200040EAD210487002F07F0088706548C068BE
:10103000020ED009C870C2F341100871C2F38200D9
:1010400048719007000F88715E48C068C0F307427E
:10105000887940EA92108871C2F34010C87100206C
:10106000087202F00100487256488089C0F30722D6
:10107000D0098872C2F38010C872C2F3401008739E
:10108000C2F300104873C2F38100887302F00300BA
:10109000C8734C48027B50080874012048744A48C1
:1010A0000068020ECA74A1F1190147480068C0F334
:1010B00007424FEA0223CB8543480088C0F307224A
:1010C000C88D40EA0200C8853F4802784FEA0263B3
:1010D0000B6340684FEA1062086B40EA02430B63FF
:1010E00039484068C0F30742086B40EA02230B63AB
:1010F00035488088C0F30722086B40EA0200086385
:10110000314802794FF0340042542F4880684FEA4A
:1011100010624FF0350042542B488068C0F30742FC
:101120004FEA02638B6328480089C0F30722886B6B
:1011300040EA02438B632448027A886B40EA022328
:101140008B632148C0684FEA1062886B40EA020056
:1011500088631D48C068C0F307424FF03C00405C04
:1011600040EA12134FF03C0043544FEA02704FEA3A
:101170001053CB8714488089C0F30722C88F40EAF8
:101180000200C8871048027B4FEA52034FF040002C
:1011900043544FF001034FF0410043540B4B17E011
:1011A0000000108000800140240000200010024058
:1011B00000100140BBBB0B0000140140FF07C00042
:1011C00028000020F400002004010020140000206A
:1011D000486C18604FF02A0010BD10B594B06846F6
:1011E000FFF76DFE119C204614B010BD70B504468B
:1011F0000020F84DF84E75623546AC62E86A20F082
:10120000F70041EA02051D4328433546E86270BDF8
:101210007CB506460C460025002000900190402237
:1012200010210820FFF7B9FB1020FFF786FC2A28C1
:1012300003D01020FFF781FC7CBDE8490988080431
:1012400040223721FFF7A9FB3720FFF776FC2A2839
:1012500003D03720FFF771FCEEE701230222302193
:101260000820FFF7C3FF402233210020FFF795FB42
:101270003320FFF762FC2A2803D03320FFF75DFC00
:10128000DAE70AE04FF40010FFF703FD28B1D44875
:1012900000684DF8250005F10105CF48406B40F28C
:1012A0002A610842EED00820FFF7F3FC20B10820A5
:1012B000C94988630420BFE70220FFF7EAFC18B1A0
:1012C0000220C5498863B7E72020FFF7E2FC20B180
:1012D0002020C14988630620AEE74FF40070FFF775
:1012E000D8FC28B14FF40070BB4988630720A3E7FE
:1012F00040F2FF50B849886300980006009901F455
:101300007F4140EA0120009901F47F0140EA112069
:10131000009940EA1160606001980006019901F4AB
:101320007F4140EA0120019901F47F0140EA112048
:10133000019940EA116020602A207DE71CB504462F
:10134000002000900190A448406910F0007F01D077
:101350000E201CBDA149098888B26946FFF758FFD5
:101360002A2806D09D49098888B26946FFF750FFB0
:10137000EFE7012C25D1019810F4802F1FD0974959
:101380000988080440223721FFF707FB3720FFF7C1
:10139000D4FB2A2803D03720FFF7CFFBD9E7402220
:1013A00006210220FFF7F9FA0620FFF7C6FB2A28DC
:1013B00003D00620FFF7C1FBCBE72A20C9E7252091
:1013C000C7E7019810F4803F1FD0844909880804BA
:1013D00040223721FFF7E1FA3720FFF7AEFB2A283A
:1013E00003D03720FFF7A9FBB3E7402206210020F6
:1013F000FFF7D3FA0620FFF7A0FB2A2803D0062028
:10140000FFF79BFBA5E72A20A3E72520A1E710B55E
:10141000044674480068032801D1272010BD714894
:10142000006838B16F480068012803D06D48006833
:1014300002281BD1B4F5805F01D12720EEE7B4F577
:10144000006F0AD10120FFF779FF2A2805D14FF458
:1014500000610120FFF73DFC08E00020FFF76EFF70
:101460002A2803D100210120FFF733FC2A20D5E7E9
:1014700070B504462A25402207212046FFF78DFA41
:101480000720FFF75AFB0546284670BD29B1524A8E
:10149000D26B0243504BDA6304E04F4AD26B824373
:1014A0004D4BDA6370470146002002E04910421CB0
:1014B000D0B20129FAD170472DE9F04106460D4618
:1014C0001446002715B92620BDE8F08100231A46EE
:1014D00019461846FFF78AFE0020434908603E4837
:1014E000406910F0007F01D00E20EDE73D48006814
:1014F000022801D1040200E07602002C17DDB4F5C9
:10150000006F14DC601E204211D12046FFF7CBFF94
:101510000746402210212046FFF73FFA1020FFF730
:101520000CFB2A2805D01020FFF707FBCCE726206C
:10153000CAE73901012302222046FFF757FE402265
:1015400011213046FFF729FA1120FFF7F6FA2A2871
:1015500003D01120FFF7F1FAB6E7012140F22A305B
:10156000FFF794FF01202049086021462846FFF735
:10157000C9F900BF1D4801F0D1FB0028FAD02A208C
:10158000A2E770B50646002400251449098808041E
:1015900040220D21FFF701FA0F48456B01E00E488C
:1015A000456B15F0450FFAD015F0040F04D0042058
:1015B00009498863032070BD15F0010F03D0012095
:1015C00005498863F7E704480069C5B20D2D0FD0BF
:1015D0001020F0E7FFFF0F000080014028000020EE
:1015E00080800140240000208C0530420020001043
:1015F00040F2FF50A749886308464469C4F343207A
:101600003070A548044201D12A20D4E714F0004FDD
:1016100001D01C20CFE714F0804F01D00920CAE789
:1016200014F0005F01D00A20C5E714F0805F01D0FC
:101630000B20C0E714F0006F01D00C20BBE714F0C2
:10164000806F01D00D20B6E714F0807F01D00E200E
:10165000B1E714F4000F01D00F20ACE714F4800FB1
:1016600001D01020A7E714F4001F01D01120A2E739
:1016700014F4801F01D012209DE714F4002F01D034
:10168000132098E714F4802F01D0142093E714F46A
:10169000003F01D015208EE714F4803F01D01620C2
:1016A00089E714F4004F01D0172084E714F4804F29
:1016B00001D018207FE714F4005F01D019207AE7E9
:1016C00014F0080F01D01A2075E72A2073E72DE9DE
:1016D000F84F07460D4614464FF02A084FF0000910
:1016E000002000900026824615B92620BDE8F88F1C
:1016F00000231A4619461846FFF778FD002067496F
:1017000008606448406910F0007F01D00E20EDE7CA
:1017100063480068022801D1040200E07F02002C27
:1017200017DDB4F5006F14DC601E204211D1204695
:10173000FFF7B9FE8146402210212046FFF72DF920
:101740001020FFF7FAF92A2805D01020FFF7F5F945
:10175000CCE72620CAE753490988080440220D2116
:10176000FFF71BF90D20FFF7E8F92A2803D00D2019
:10177000FFF7E3F9BAE74748D0F814A04A4E13E060
:10178000761E48490988080440220D21FFF705F913
:101790000D20FFF7D2F92A2803D00D20FFF7CDF94D
:1017A000A4E73C48D0F814A01AF4807F01D1002EA1
:1017B000E6D10EB9292099E7402218213846FFF7D3
:1017C000ECF81820FFF7B9F92A2803D01820FFF702
:1017D000B4F98BE74FEA0911012300222046FFF7F5
:1017E00005FD012140F21A30FFF750FE2146284640
:1017F000FFF760F801202949086000BF2B4801F07D
:101800008DFA0028FAD000BF2948006818B9294885
:1018100000782A28F8D0274800782A2802D02548BE
:10182000007863E740F2FF501A4988636846FFF783
:10183000A8FE804603E06846FFF7A3FE8046B8F1A5
:101840002A0F07D19DF800000728F4D09DF800006A
:101850000628F0D0404649E710B594B02A24FFF797
:10186000CBFA04462A2C03D16846FFF728FB04462E
:101870002A2C05D1BDF84C100804FFF7F9FD0446E9
:101880002A2C04D14FF40060FFF7C1FD0446204626
:1018900014B010BD0080014008E0FFFD8C0530420F
:1018A0002400002028000020FFFF0F00002000106F
:1018B000300000202C000020810000BF4A1E1100D3
:1018C000FCD1704770B505460B461E464FF47F406D
:1018D00000EA05200643CC48006820F00200CA490F
:1018E00008600520FFF7E8FF002424E0C7480068EF
:1018F00020F00200C54908604FF40040204130420A
:1019000005D00846006840F00400086005E0BF48C4
:10191000006820F00400BD4908600520FFF7CCFFF7
:10192000BA48006840F00200B84908600520FFF797
:10193000C3FF601C84B2102CD8DBB448006840F0B0
:101940000200B24908600846006840F004000860E0
:10195000AD48006840F00200AB4908600520FFF781
:10196000ABFF70BD08B50121082001F029FD06205C
:10197000ADF8000010208DF8030001208DF8020062
:101980006946A2480C3801F069FA44F20200ADF849
:10199000000069469C480C3801F060FA3220FFF7DD
:1019A0008BFF9948006820F48040974908604FF405
:1019B0007A70FFF781FF9448006840F480409249B4
:1019C00008606420FFF778FF8F48006840F002004D
:1019D0008D4908608D48006840F002008B4908601E
:1019E0000846006840F0040008603D2088490870FF
:1019F000084601780120FFF765FF8548017802203D
:101A0000FFF760FF94210320FFF75CFF0021042013
:101A1000FFF758FF08BD00B57D48007800280EDDAF
:101A20007B480078401E7A490870084601780120FA
:101A3000FFF748FF764801780220FFF743FF00BD1B
:101A400000B5734800783F280EDA71480078401CD2
:101A50006F490870084601780120FFF733FF6C4892
:101A600001780220FFF72EFF00BD10B5044668483C
:101A7000047001780120FFF725FF654801780220F6
:101A8000FFF720FF10BD00B5C0210120FFF71AFFAE
:101A900000210220FFF716FF00BD5D480078704767
:101AA00008B50121182001F08BFC0121880301F009
:101AB00094FC4FF43040ADF8000003208DF8020094
:101AC00018208DF8030069464F480C3801F0C6F91C
:101AD0004020ADF8000069464E4801F0BFF908BD4E
:101AE0001FB504464C4801F0D3FC0121084601F023
:101AF0005AFC2020ADF802000020ADF804004FF49D
:101B00000070ADF8060002940020ADF80C004FF410
:101B10000070ADF8000069463F4801F0FDFC3F4809
:101B200001F014F83C480C303D4908603D4800681D
:101B30004860102088608001C86000200861802013
:101B40004861400088618000C8614FF4405048629D
:101B50002020086200208862304801F099F80122B4
:101B600002212D4801F087FD01212B4801F067FD7E
:101B700001220621294801F0C2F801202A490870F3
:101B80001FBD70B504460D4624485838806D4FF689
:101B9000FE71084021495839886521484460C56074
:101BA00001461E4801F074F801211C4801F09BF821
:101BB00070BD10B54FF4003001F0CEF858B11748A1
:101BC00001F0A8F8194908804FF4003001F0D7F867
:101BD0000120174908704FF4802001F0BDF830B1A2
:101BE0004FF4802001F0CBF80120124908800E4804
:101BF000007838B100200C490870FFF7B3FE0EA042
:101C000001F0CEFD10BD00000C0C01400C0801409D
:101C10003800002000100140003800405800024009
:101C2000140100203C000020340000203600002079
:101C3000DA000020D600002050434D2031373730E5
:101C400020496E69742073756363657373210A009C
:101C500010B50346002213E0002109E0585CF74C60
:101C600054F82240645CA04200D003E0481CC1B29A
:101C70000329F3DB00BF032900D103E0501CC2B2EB
:101C8000202AE9DB00BF0120904010BD2DE9F04182
:101C90000025002400260027FFF79FFA8046B8F1B0
:101CA000FF0F02D20120BDE8F0814FF40072E44939
:101CB0000020FFF701FC2A2801D00220F3E7E04DC5
:101CC00005F5DF76B768B7EB582F01D300271CE086
:101CD000B0684FF40072DA49FFF7EEFB2A2801D012
:101CE0000320E0E7D64D2878E9280ED02878EB28A5
:101CF0000BD000274FF4007229460020FFF7DCFBD1
:101D00002A2801D00420CEE7CD4D2878E92804D038
:101D10002878EB2801D00520C5E705F10B04B4F8BD
:101D20000B0050B10020C7490870B4F80B00C64939
:101D300008600220C54908600AE00120C149087016
:101D4000D4F81900C0490860D4F82100BF490860E0
:101D50002088BF490880A078BE490880B4F80300F5
:101D60003844BD490860E088BC49086008460068FE
:101D7000C0F31610BA4908606079B3490968B64AD9
:101D8000126800FB0120B749086008460068B449A2
:101D900009680844B4490860002084E770B5044627
:101DA000A848007808B1E50900E0250A022C01D214
:101DB000AE4870BDA848006846194FF40072A049AB
:101DC0003046FFF779FB2A2801D0A848F1E79D4863
:101DD000007828B104F07F05994850F8256003E0A9
:101DE000E5B2974830F815603046E2E770B5064630
:101DF00000209F4981F8650000240CE000219C48E8
:101E0000293000EB840001609948513000EB440018
:101E10000180601CC4B20A2CF0DB002435469448D3
:101E2000293000EB8400056001219148513000EB1E
:101E30004400018043E02846FFF7B0FF0546814893
:101E4000007818B9A5F57F40FF3805D0874885424E
:101E500002D0C01D854204D10120854981F865006A
:101E60002EE08348293000EB84000068291A80485E
:101E7000513000EB44000088081A14D0601CC4B232
:101E80000A2C04DB00207A4981F8650018E07848C4
:101E9000293000EB8400056001217548513000EBCA
:101EA000440001800BE07248513000EB4400008890
:101EB000401C81B26E48513000EB44000180BAE70B
:101EC00000BF70BD70B5054600BF002417E068482C
:101ED000293000EB840001686548513000EB440074
:101EE00000880844401EA84207D36148293000EB0F
:101EF00084000068A84200D803E0601CC4B20A2C29
:101F0000E5DB00BF5A48293000EB84000068A84296
:101F100024D1ACB95648007800280BDD544800782D
:101F2000401E5349087008460178401C00EB8100B0
:101F3000066801E0284670BD3046FFF757FFC4E74A
:101F4000601E4B49293101EB80000268601E283178
:101F500001EB400000881044401EECE7681E054677
:101F6000E9E770B5054600BF002417E04048293076
:101F700000EB840001683E48513000EB44000088CB
:101F80000844401EA84207D33948293000EB84009A
:101F90000068A84200D803E0601CC4B20A2CE5DB4C
:101FA00000BF3348293000EB8400016830485130CD
:101FB00000EB440000880844401EA8422DD1601C5C
:101FC0000A281AD12A4890F8650008B1274870BD40
:101FD0002748007809280CDA2548D0F8291002781B
:101FE000401C00EB8200016021480078401C204921
:101FF00008702846FFF7FAFEB6E71D485130611C0D
:1020000000EB4100008808B91848E0E7184829307B
:10201000611C00EB81000068D9E7681C0546D6E723
:102020000146881E0B4A12880F4B1B6800FB0230CA
:102030007047F0B504460E4600251FE0440000201E
:10204000F8020020C4000020AC000020A000002006
:10205000A8000020B0000020B4000020C000002034
:10206000BC000020B8000020A4000020F8FFFF0FF3
:1020700040010020705D6055681CC5B2082DF9DB79
:1020800006F10800FFF7E4FD6066708BB18A00EB93
:102090000140A065F069E065F07A84F860000020F6
:1020A000A066E066F848007820B1A06D10B9F74846
:1020B0000068A065F648006888B10020F54981F8FD
:1020C0004F0081F84E00002506E0F248415D04F122
:1020D00008004155681CC5B2502DF6DB44E030784D
:1020E0002E2806D13A2020725C2161720021A17253
:1020F0003AE0072705E0F05D202800D003E0781ED5
:10210000C7B2002FF7DC00BF002505E0715D04F1C8
:1021100008004155681CC5B2781C8542F6DB94F86E
:10212000600020281CD1307A202819D02E22284681
:10213000691CCDB204F108010A54002708E006F139
:102140000800C15DEA1904F108008154781CC7B287
:10215000032FF4DB0021EA1904F10800815403E0A5
:10216000002104F108004155F0BD2DE9FF4F83B077
:1021700099460398019000200090002500270090C8
:10218000C3490860019800287DD1BF480078002825
:10219000FAD1824688E0C049096801EB0A004FF491
:1021A0000072BE49FFF788F92A2803D0002007B043
:1021B000BDE8F08F4FF000086FE0B84800EB08056D
:1021C00028782E2804D0287810B12878E52805D161
:1021D00028782E285FD168782E285CD1E87A0F28DD
:1021E0003BD1AE4800EB08073878401E00F03F00B6
:1021F0001A214843C4B2372C4DDAA64806190024E8
:1022000005E0781C005D06F8010B601CC4B20A2CC6
:10221000F7DB002406E007F10E00005D06F8010B75
:10222000601CC4B20C2CF6DB002406E007F11C0095
:10223000005D06F8010B601CC4B2042CF6DB387894
:1022400010F0400F01D000203060387800F03F00DF
:10225000012820D18E4908601DE005F10800FFF734
:10226000F7FC0599084203D00098401C80B200900A
:10227000B9F8000060B1B9F800100098814207D1A8
:102280002946049800E015E0FFF7D3FE01208EE711
:1022900000207F49086008F12008B8F5007F8CD342
:1022A0000AF1010000F0FF0A7D4800688245FFF452
:1022B00072AFA7E0DDF804B0A2E05846FFF7B0FE29
:1022C00002904FF0000A83E0029901EB0A004FF4FC
:1022D00000727249FFF7F0F82A2801D0002066E763
:1022E0004FF000086DE06D4800EB080528782E28B7
:1022F00004D0287810B12878E52805D128782E2830
:102300005DD168782E285AD1E87A0F283BD16348EE
:1023100000EB08073878401E00F03F001A214843C0
:10232000C4B2372C4BDA5B480619002405E0781C50
:10233000005D06F8010B601CC4B20A2CF7DB002418
:1023400006E007F10E00005D06F8010B601CC4B248
:102350000C2CF6DB002406E007F11C00005D06F8FB
:10236000010B601CC4B2042CF6DB387810F0400F6F
:1023700001D000203060387800F03F0001281ED1E5
:10238000434908601BE005F10800FFF761FC05996F
:10239000084203D00098401C80B20090B9F80000B9
:1023A00050B1B9F800100098814205D1294604982F
:1023B000FFF73FFE0120FAE600203549086008F1EA
:1023C0002008B8F5007F8ED30AF1010000F0FF0A63
:1023D000344800888245FFF677AF5846FFF7DEFCA9
:1023E00083466FF07040834509D0C01F834506D0F7
:1023F0002548007820B9ABF57F40FF3800D100E0D8
:102400005BE700BFB9F8000020B90098A9F8000008
:102410000120CCE60020CAE6816D81660021C166FC
:10242000704770B504460D46A06EFFF7F9FD0646ED
:10243000E16E88194FF400722946FFF73DF82A280B
:1024400001D0002070BDE06E401CE066154909888F
:10245000E06E88422AD10020E066A06EFFF79EFC65
:10246000A0660948007820B9A06EA0F57F41FF3929
:1024700007D00D49A06E884203D0C91DA06E8842C6
:1024800014D10020DEE70000C4000020A0000020DE
:1024900040000020F8040020B8000020F8020020CE
:1024A000BC000020B0000020F8FFFF0F0120C9E7AA
:1024B00030B5024600200446034602E0581CC3B271
:1024C000521C10780028F9D102E0601CC4B2491CEB
:1024D00008780028F9D1A34200D030BDD21AC91A19
:1024E00007E010780D78A84201D00020F5E7521CD3
:1024F000491C10780028F4D10120EEE72DE9FF4FA8
:102500009DB08846934699460025B8F1000F46D104
:1025100054480078002842D100243BE05249096821
:1025200008194FF400725149FEF7C6FF2A2809D056
:1025300000201790702201A91D9801F0D7F921B051
:10254000BDE8F08F002620E0484885192878D8B1EA
:102550002878E52818D0E87A0F2815D0294601A850
:10256000FFF767FD1A9810EA090F0AD003A9584629
:10257000FFF79EFF28B1702201A91D9801F0B6F95E
:10258000DDE700203A4908602036B6F5007FDBD34E
:10259000601CC4B2374800688442BFD359E0474644
:1025A00055E03846FFF73CFD8246002438E00AEB50
:1025B00004004FF400722D49FEF77EFF2A2807D051
:1025C00000201790702201A91D9801F08FF9B6E73D
:1025D000002620E0254885192878D8B12878E528F4
:1025E00018D0E87A0F2815D0294601A8FFF721FD59
:1025F0001A9810EA090F0AD003A95846FFF758FFA6
:1026000028B1702201A91D9801F070F997E7002008
:10261000174908602036B6F5007FDBD3601CC4B2D2
:10262000154800888442C2DB3846FFF7B7FB0746EF
:102630006FF07040874209D0C01F874206D009481A
:10264000007820B9A7F57F40FF3800D100E0A8E767
:1026500000BF00201790702201A91D9801F046F9D3
:1026600000BF6CE7C4000020B8000020F802002082
:1026700040000020BC000020B000002030B5B9B000
:10268000044600250F48007810B10F48056800E0A7
:102690000025012C13D10D4863042946026801A8C6
:1026A000FFF72CFF702201A91DA801F01FF9339834
:1026B00010B9012039B030BD0549339808600020B9
:1026C000F8E70000C4000020A0000020D000002097
:1026D000CC00002010B50246022904D113785478AA
:1026E00043EA04200CE004290AD1D3781B0694782D
:1026F00043EA0443547843EA0423147843EA040089
:1027000010BD10B502460B46002107E0505C5C5C32
:10271000A04201D0012010BD481CC1B20429F5DB44
:102720000020F8E770B50446A4A12046FFF7E9FFB2
:1027300008B1012070BD0421201DFFF7CBFFA14986
:102740004860A1A104F10800FFF7DBFF08B10220F7
:10275000F0E79FA104F10C00FFF7D3FF08B10320BD
:10276000E8E7022104F11400FFF7B4FF954908825D
:10277000022104F11600FFF7ADFF92494882084696
:10278000807C95490870042104F11800FFF7A2FF2E
:102790008C494861042104F11C00FFF79BFF894923
:1027A0008861022104F12000FFF794FF85498883A6
:1027B000022104F12200FFF78DFF8249C8830846F9
:1027C000807F8649087086A104F12400FFF799FFF5
:1027D00008B10420AEE7042104F12800FFF77AFFD6
:1027E0007849486208464068B0F5801F09D208461B
:1027F0004068810A7CA000F0D3FF7CA000F0D0FFED
:1028000008E070484068010D77A000F0C9FF78A08B
:1028100000F0C6FF6B48008A012802D175A000F0C5
:10282000BFFF6848408A012803D175A000F0B8FFB7
:1028300002E075A000F0B4FF624840694FF47A717D
:10284000B0FBF1F5294668A000F0AAFF70A000F0E7
:10285000A7FF5C4880694FF47A71B0FBF1F5294617
:1028600061A000F09DFF6CA000F09AFF5548C18B5D
:102870005DA000F095FF6AA000F092FF002059E7EC
:102880002DE9F04105460127674805600068406E64
:10289000B0F5806F02D00120BDE8F0816248006889
:1028A000FFF7BAFD614960480068FFF7BAFD60496B
:1028B0005D480068FFF7B5FD02E05EA000F070FF24
:1028C0005A48FFF72FFF0028F7D13E494869FFF724
:1028D00007F900205C4908705C4908805C4952484F
:1028E0000068FFF79EFD5B494F480068FFF799FDC0
:1028F0004FF480614D48FFF744F93248406AC0F315
:10290000CF26002450E0012F02D1022C00D1002755
:1029100000BF4E4800880028FBD000204B490880AB
:10292000424941480068FFF77CFD41493E48006844
:10293000FFF777FD00BF444800780028FBD0002057
:1029400041490870424938480068FFF76AFD41492B
:1029500035480068FFF765FD3F4800683F49D1F8FA
:102960000C1100EA01003D49D1F8101100EA010004
:102970003A49D1F81411084214D13748006810B10F
:102980003748006820B90021364800F0ACF90DE066
:102990003548006808B9FFF73EF83448006808B9C0
:1029A000FFF74EF8601C84B2B442ACDB00BF0021DC
:1029B0002C4800F098F900206EE700005249464686
:1029C0000000000048050020574156450000000067
:1029D000666D742000000000D8000020D90000209F
:1029E0006461746100000000256400004B620A000D
:1029F0004D620A005741562050434D0A0000000026
:102A000073696E676C650A0073746572656F0A009E
:102A10004B487A0A000000006270730A0000000050
:102A20006269740A00000000DC00002070050020CC
:102A300070070020666F726D617420696C6C656749
:102A4000616C210A00000000DA000020D60000209E
:102A500070090020700B002008012342000023426F
:102A60000C0123425800024010012342140123426A
:102A700031490143314A1160704770B5002100238C
:102A80000F22C4780CB32D4C246804F4E064C4F520
:102A9000E064210AC1F10403CA40447804FA03F156
:102AA0008478144021430901254C0678A155047807
:102AB00004F01F050124AC4005786D114FF0E026AD
:102AC00006EB8505C5F8004109E0047804F01F0510
:102AD0000124AC401B4D0678761145F8264070BDA8
:102AE000194A0A400243154B1B1F1A60704739B13F
:102AF000124A121D12680243104B1B1D1A6006E099
:102B00000E4A121D126882430C4B1B1D1A6070473F
:102B1000042808D14FF0E021096941F004014FF089
:102B2000E022116107E04FF0E021096921F0040182
:102B30004FF0E022116170470000FA050CED00E053
:102B400000E400E080E100E080FFFF1F01684FF635
:102B5000FE72114001600021016041608160C1602E
:102B60008C49884208D18B490839496841F00F01E6
:102B7000884A083A51608AE086491431884208D16F
:102B800084490839496841F0F001824A083A5160A5
:102B90007DE080492831884208D17E49083949685A
:102BA00041F470617B4A083A516070E079493C31E8
:102BB000884208D177490839496841F47041754A1B
:102BC000083A516063E073495031884208D1714935
:102BD0000839496841F470216E4A083A516056E05C
:102BE0006C496431884208D16A490839496841F41E
:102BF0007001684A083A516049E066497831884274
:102C000008D164490839496841F07061614A083A5D
:102C100051603CE06049884206D1011F096841F0DB
:102C20000F01021F116032E05B491431884208D164
:102C30005949091F096841F0F001574A121F1160F4
:102C400025E055492831884208D15349091F0968B0
:102C500041F47061504A121F116018E04E493C3136
:102C6000884208D14C49091F096841F470414A4A19
:102C7000121F11600BE048495031884207D1464984
:102C8000091F096841F47021434A121F11607047FF
:102C900010B50022026847F6F0739A430C6A8B68FD
:102CA00023430C6923434C6923438C692343CC6938
:102CB00023434C6A23438C6A23431A430260CB6844
:102CC00043600B6883604B68C36010BD00210160E6
:102CD00041608160C160016141618161C1610162E6
:102CE00041628162704721B1026842F001020260D4
:102CF00004E002684FF6FE731A40026070471AB192
:102D000003680B43036002E003688B430360704772
:102D1000416070470146486880B270470146002014
:102D2000002211F0805F03D01B4B083B1A6802E0C1
:102D3000184B083B1A680A4201D0012000E000202D
:102D4000704710F0805F03D01349091F086002E04C
:102D5000104908394860704701460020002211F0F0
:102D6000805F03D00C4B083B1A6802E0094B083B1C
:102D70001A680A4201D0012000E00020704710F0DC
:102D8000805F03D00449091F086002E00149083947
:102D900048607047080002400804024010B504462D
:102DA000CA48844208D10121042000F023FB0021FD
:102DB000042000F01FFB46E0C548844208D10121F1
:102DC000082000F017FB0021082000F013FB3AE078
:102DD000C048844208D10121102000F00BFB0021E3
:102DE000102000F007FB2EE0BB48844208D10121EF
:102DF000202000F0FFFA0021202000F0FBFA22E062
:102E0000B648844208D10121402000F0F3FA0021A5
:102E1000402000F0EFFA16E0B148844208D10121C9
:102E2000802000F0E7FA0021802000F0E3FA0AE0B9
:102E3000AC48844207D10121801500F0DBFA002163
:102E4000A01500F0D7FA10BD10B50121084600F01A
:102E5000D1FA0021012000F0CDFA10BD2DE9F0419A
:102E6000024600250026002000230024002791F8B8
:102E700003C00CF00F0591F803C01CF0100F03D035
:102E800091F802C04CEA050591F800C0BCF1000FB2
:102E900031D0146800202BE04FF0010C0CFA00F345
:102EA000B1F800C00CEA03069E4220D183004FF027
:102EB0000F0C0CFA03F7BC4305FA03FC4CEA0404BC
:102EC00091F803C0BCF1280F06D14FF0010C0CFAA9
:102ED00000FCC2F814C00AE091F803C0BCF1480F2E
:102EE00005D14FF0010C0CFA00FCC2F810C0401CD8
:102EF0000828D1D31460B1F800C0BCF1FF0F34DD55
:102F0000546800202EE000F1080C4FF0010808FA88
:102F10000CF3B1F800C00CEA03069E4221D18300F5
:102F20004FF00F0C0CFA03F7BC4305FA03FC4CEA14
:102F3000040491F803C0BCF1280F05D100F1080C7E
:102F400008FA0CF8C2F8148091F803C0BCF1480FDD
:102F500007D100F1080C4FF0010808FA0CF8C2F88C
:102F60001080401C0828CED35460BDE8F0814FF695
:102F7000FF710180022181700421C17070470246F7
:102F8000002093680B4201D0012000E00020704730
:102F90000146886880B2704702460020D3680B4221
:102FA00001D0012000E0002070470146C86880B2CF
:102FB000704701617047416170470AB1016100E0EB
:102FC00041617047C16070474FF480320A438261AB
:102FD0008161826182698269704702460020424BAA
:102FE00018684FF68073184040EA021008433E4BC1
:102FF000186070473D49C8617047F0B50A46002324
:1030000000240021002500F00046B6F1004F02D157
:10301000354EF16901E0344E7168C0F3034583B267
:1030200000F44016B6F5401F08D121F070612E4E15
:10303000766826F070662C4F7E6012E000F48016F1
:10304000B6F5801F06D1032606FA05F4A14341F028
:10305000706106E0460D360103FA06F6B14341F011
:10306000706122B1460D360103FA06F6314300F0D5
:103070000046B6F1004F02D11B4EF16101E01A4E3D
:103080007160F0BD30B500228B071C0F0F2303FACF
:1030900004F2154B08338C1053F824309343124C30
:1030A00008348D1044F8253023468C1053F8243012
:1030B0008C07240F00FA04F423430B4C08348D10C2
:1030C00044F8253030BD0A490860704700080140C7
:1030D000000C0140001001400014014000180140A4
:1030E000001C01400020014000000140000020427F
:1030F000DC002042DB48006840F00100D94908604C
:1031000008464068D8490840D649486008460068E3
:10311000D6490840D34908600846006820F480205A
:1031200008600846406820F4FE0048604FF41F0025
:1031300088607047CB49096821F48031C94A116021
:103140001146096821F480211160B0F5803F03D059
:10315000B0F5802F0ED106E0C249096841F48031F4
:10316000C04A116007E0BF49096841F4A021BD4A87
:10317000116000E000BF00BF704710B5014600229B
:10318000002300204A11012A02D1B64C236806E030
:10319000022A02D1B34C236A01E0B24C636A01F007
:1031A0001F02012494401C4201D0012000E00020B5
:1031B00010BD70B500240025002600BF3120FFF7A8
:1031C000DCFF0646641CB4F5A06F01D0002EF5D0DC
:1031D0003120FFF7D2FF08B1012500E00025284685
:1031E00070BD014600209F4A106820F0F80040EAB8
:1031F000C100106070479E49086070470246002079
:10320000984B586820F47C1042EA01031843954B10
:103210005860704796490866704701460020914AF9
:10322000506820F003000843506070478D484068A4
:1032300000F00C007047014600208A4A506820F0D8
:10324000F00008435060704701460020854A5068EE
:1032500020F4E06008435060704701460020814A36
:10326000506820F4605040EAC1005060704729B1B6
:103270007C4A527A02437B4B5A7204E0794A527A72
:103280008243784B5A7270477A490860704701460A
:103290000020744A506820F4404008435060704752
:1032A0000021754A11706F4A82F82010012802D05F
:1032B000042808D103E001216F4A117004E00521C0
:1032C0006D4A117000E000BF00BF70476B49086095
:1032D00070476449096A0143624A1162704767494D
:1032E00044390860704730B50021002200240023D3
:1032F0005C4D6D6805F00C0121B1042905D0082949
:1033000023D105E05E4D056022E05D4D05601FE0C4
:10331000544D6D6805F47012524D6D6805F480349B
:10332000022505EB92421CB9564D554305600BE052
:103330004C4D6D6815F4003F03D0524D5543056068
:1033400002E04F4D5543056002E04D4D056000BF62
:1033500000BF444D6D6805F0F00109094A4D6B5CF2
:103360000568DD4045603F4D6D6805F4E061090A80
:10337000454D6B5C4568DD4085603A4D6D6805F4F0
:103380006051C90A404D6B5C4568DD40C560354DF4
:103390006D6805F44041890B3C4D6B5CC568B5FB1D
:1033A000F3F5056130BD29B12E4A526902432D4B18
:1033B0005A6104E02B4A526982432A4B5A61704792
:1033C00029B1284A92690243264B9A6104E0254AB2
:1033D00092698243234B9A61704729B1214AD2698D
:1033E0000243204BDA6104E01E4AD26982431D4B3E
:1033F000DA61704729B11B4AD2680243194BDA607F
:1034000004E0184AD2688243164BDA60704729B14B
:10341000144A12690243134B1A6104E0114A1269FB
:103420008243104B1A617047144940390860704755
:103430000F49C86470470B49C87170470948406A12
:1034400040F0807007494862704701460020054AF5
:1034500092680A4201D0012000E000207047014933
:1034600088727047001002400000FFF8FFFFF6FE70
:1034700000004242D80042422010024080044242F2
:1034800000127A0000093D00E0000020F00000205A
:1034900010B50446BE48844208D101218014FFF7CC
:1034A000A9FF0021A014FFF7A5FF16E0B948844248
:1034B00008D101210014FFF7AAFF00212014FFF713
:1034C000A6FF0AE0B448844207D10121C013FFF7E8
:1034D0009EFF0021E013FFF79AFF10BD10B50022F8
:1034E000028802F441520B884C8823438C88234382
:1034F000CC8823430C8923434C8923438C89234361
:10350000CC8923431A430280838B4FF2FF742340FC
:1035100083830B8A038210BD2DE9F04F85B00546E9
:103520000C464FF0000902274FF000084FF0010B46
:103530000026B246A88B4FF240010840A883022023
:103540002884B5F81C90A068022801D100BF38E09B
:10355000A08810B94FF0010B01E04FF0020B8D482D
:10356000854200D100E000BF6846FFF7BCFEDDF8F1
:1035700000A0E088B0F5007F0AD14FEA1A2000EBE6
:1035800080004000A168B0FBF1F0401D86B20BE066
:103590004FEA4B10BAFBF0F000EB80004000A1684E
:1035A000B0FBF1F0401D86B20A20B6FBF0F606F043
:1035B0000108A6EB0800C0F34F074FF6FF7000EAC2
:1035C0000828022F01DBFF2F02DD02274FF0000841
:1035D000E08840EA080038432884A088A18908438D
:1035E000618808432188084340F4006040EA0909E3
:1035F000A5F81C9005B0BDE8F08F00210180418046
:103600008180C180018141818181C1810721018245
:1036100070470021018041808180C180022181604A
:1036200000218181704721B1028842F0400202806E
:1036300004E002884FF6BF731A400280704721B140
:10364000828B42F48062828304E0828B4FF6FF33E8
:103650001A408283704730B5002400230C110125E5
:10366000A540ABB21AB185881D43858002E08588EC
:103670009D43858030BD1AB183880B43838002E06F
:1036800083888B4383807047818170470146888996
:103690007047A1F57E42FF3A04D0028842F480725E
:1036A000028004E002884FF6FF631A4002807047F0
:1036B00021B1828842F00402828004E082884FF6C1
:1036C000FB731A408280704702884FF2FF731A40E2
:1036D000028002880A4302807047018841F48051C9
:1036E0000180704721B1028842F40052028004E058
:1036F00002884DF6FF731A40028070470246002090
:10370000012901D0108B00E0908A70470146088A99
:103710007047B1F5804F04D1028842F480420280A4
:1037200004E002884BF6FF731A400280704702469D
:10373000002013890B4201D0012000E000207047D7
:10374000CA4302817047F0B50246002000240023DE
:10375000002501F00F070126BE40B4B20B1101266F
:103760009E40B3B2968806EA03051689264202D027
:103770000DB1012000E00020F0BD10B5002201F0E5
:103780000F040123A3409AB2D343038110BD00006C
:103790000030014000380040003C0040704700000D
:1037A0000FB4044910B503AA029800F047F910BC01
:1037B0005DF814FB1C0000202DE9F04104460E4684
:1037C000002020622046E168884738B3252806D0CB
:1037D000D4E901219047206A401C2062F2E7E168A9
:1037E000204600278847050018D0A5F14100192878
:1037F00002D820354FF4006732462946204627601C
:10380000FCF7D0FC40B1012804D0F61D26F00706D5
:103810000836D7E7361DD5E72846D9E7206ABDE840
:10382000F08170B50C460546012A05D0287880063F
:1038300000D5EA69002302E0012305E05B1C934206
:1038400002D2E05C0028F9D1A869E618C01AA86184
:10385000286A184428622846AFF3008004E0D5E9BE
:10386000012114F8010B9047B442F8D32846AFF376
:10387000008070BD2DE9F0410646002410687529CE
:10388000314616A511D0AFF30080002803DAC0F14D
:10389000000013A507E031688A0701D511A502E0F1
:1038A000490704D510A5012401E0AFF300800021F1
:1038B0000A2306F1240707E0B0FBF3F203FB120032
:1038C000303078541046491C0028F5D123462A464A
:1038D0003046BDE8F04100F03FB8000000000000B5
:1038E0002D0000002B0000002000000010B5203A41
:1038F000C0F00B80B1E81850203AA0E81850B1E8A9
:103900001850A0E81850BFF4F5AF5FEA027C24BF5E
:10391000B1E81850A0E8185044BF18C918C0BDE855
:1039200010405FEA827C24BF51F8043B40F8043B1E
:1039300008BF7047D20728BF31F8023B48BF11F8D3
:10394000012B28BF20F8023B48BF00F8012B70472D
:1039500070477047704770472DE9F0470D4699460C
:103960009246044600F124080168880604D5E069FF
:1039700021F01001216000E00120A84202DDA0EB4F
:10398000050700E00027A16907EB050202EB09002B
:10399000A1EB0000A0612078C00602D42046AFF35E
:1039A0000080002608E0D4E901211AF806009047BB
:1039B000206A401C761C20624E45F4DB2078C0064D
:1039C0000AD52046AFF3008006E0D4E9012130207B
:1039D0009047206A401C2062381EA7F10107F4DCE2
:1039E00007E0D4E9012118F805009047206A401C3F
:1039F0002062281EA5F10105F3DC2046AFF300800C
:103A00002078000602D50220BDE8F0870120FBE700
:103A100010B5436913B1AFF3008001E0FFF701FF78
:103A2000012010BD127800F124010A7000224A70B2
:103A30000122EDE711684FF0FF32E9E7074B70B55F
:103A40000D467B4400F011F80446284600F020F8AB
:103A500010B14FF0FF3070BD204670BD89CCFFFF24
:103A600001694A1C02610878704700B58FB0CDE942
:103A700001310021059105497944CDE90310114632
:103A80006846FFF799FE0FB000BD0000E5FFFFFF9D
:103A9000007B00F080007047754600F029F8AE46C4
:103AA00005006946534620F00700854618B020B54A
:103AB000FCF7A2FBBDE820404FF000064FF00007E6
:103AC0004FF000084FF0000B21F00701AC46ACE8C6
:103AD000C009ACE8C009ACE8C009ACE8C0098D4633
:103AE00070470446AFF300802046FCF770FB0000EF
:103AF00000487047700D002090EA010F48BF81F028
:103B0000004100F12E82421A3CBF801A89184FEA08
:103B1000D0524FF07F4C1CEA410FA2EBD15318BF9B
:103B20009CEA026F00F03B804FF0004C4CEA002012
:103B30004CEA012121FA03FC10EB0C0C1ED202F11D
:103B4000FF325FEA1C2040EBC25038BF70471CF0C8
:103B50007F0F4FEA400C18BFBCF17F4F38BF704752
:103B6000C3F12003994008BF20F00100BCF17F4F52
:103B700038BF7047A0F1C04000F0DDB94FEA3C000B
:103B8000000A40EBC25028BF1CF0FF0F4FEA400C68
:103B9000E6D018BFBCF17F4F38BF7047EAE79CEA18
:103BA000026F05D010EA5C0F08BF00F000407047BC
:103BB00010B500F07AF900BF64FBBE3E4FF47F0CF5
:103BC0001CEAD0121EBF1CEAD11392EA0C0F93EA32
:103BD0000C0F00F0858090EA010F48BF42F480721C
:103BE00040F4000C41F400002CF07F4120F07F40B5
:103BF00000B58142A2EB03020FF2081CACEB504E61
:103C0000C0F100009EF800E04FEA4E0E00FB0EFCF3
:103C100038BF49004FEA2C1C02F5FA020CFB0EF3E8
:103C20004FEACE1E4FEA112C4FEAC1210EEB635E24
:103C300042EB22420EFB0CFC4FEA1C5300FB03112B
:103C40004FEA112C4FEA01310EFB0CFC4FEADC4C21
:103C500000FB0C11C14228BF09184CEB03335DF87F
:103C600004EB10EB410143EBC250B2F57C0F38BFBF
:103C7000704729D512F0F00F1CBF00F1C04000F0D2
:103C800000407047008182838485868788898B8C79
:103C90008D8E8F919293959697999A9C9D9FA0A2B5
:103CA000A3A5A7A8AAACAEB0B2B3B5B7B9BCBEC005
:103CB000C2C5C7C9CCCED1D4D7D9DCDFE2E6E9ECA6
:103CC000F0F3F7FAFE0000004FEA400C0CF1807CA4
:103CD000BCF17E4F28BF7047B0F1C04000F02BB957
:103CE00090EA010F0CEAD11348BF42F4807262459A
:103CF00038BF634507D213F47F0F16D080EA010066
:103D000000F00040704710B500F0CFF8097EFC3E8F
:103D100000F005B880EA010000F00040704780EA3A
:103D2000010000F0004000F006B912F47F0F04BF5C
:103D30000248704780EA010000F0FDB80000C07F33
:103D4000C10DD1F19E0206DB4FEA002343F0004390
:103D500023FA02F07047004207D54FEA4001B1F163
:103D6000FE4F02D24FF00000704710B500F09DF8F2
:103D700049922480002070476FEA200070470000BD
:103D8000B0FA80F310FA03F2C3F19D030AD0D9050B
:103D900001EB1220530638BF704700F1010008BF45
:103DA00020F00100704700004FF47F0C1CEAD01295
:103DB0001EBF1CEAD11392EA0C0F93EA0C0F00F01D
:103DC000478090EA010F48BF42F480724FF0004CE8
:103DD0004CEA00204CEA012102EB0302A0FB011394
:103DE000A2F50002002918BF43F001035B0028BFC1
:103DF0004FEA330342EB22425FEA132C4CEBC250F2
:103E00002EBFBCEB436FB2F57C0F70474FEA036CDB
:103E1000BCF1004F08BF20F00100B2F57C0F38BFA5
:103E200070470BD582F0FF0212F5803FC8BF704784
:103E300000F1C040D8BF00F00040704700F5000C12
:103E40005FEA4C0C48BF7047B0F1C04000F073B857
:103E500090EA010F0CEAD11348BF42F48072624528
:103E600038BF634504D280EA010000F0004070478B
:103E700010B500F01AF800BF8900013E00F007B845
:103E800000F009B85FEA410C5FEA1C6C08D080EAD8
:103E9000010000F050B85FEA400C5FEA1C6CF6D1FC
:103EA0004FF00040A0F5800070470EF1020E2EF09A
:103EB000030E5EF8044B244204D44FEA4102B2F1EF
:103EC0007F4F11D84FEA4003B3F17F4F0CD80ED18A
:103ED0004FEAD07CB2F17F4F0CEB4C0C0CF1020C92
:103EE00008BF4CEBD17C04E04FF0080C01E04FEA36
:103EF000D17C0CEB4C0324FA03F404F00704B4F176
:103F0000040C06D20EEB840CBDE810404CF0010C02
:103F10006047DFE80CF0070802024FF00040A0F510
:103F2000800010BD0846420018BFD2F1807288BFE1
:103F300000F0004010BDFF2141EAD050C00570479D
:103F400080F0004090EA010F7FF5DDAD81F0004187
:103F500000F007B890EA010F48BF81F000413FF53B
:103F6000D2AD421A04D882F00042A0EB0200114404
:103F70004FEAD0524FF07F4C1CEA410FA2EBD153D5
:103F800018BF9CEA026F4AD04FF0004C4CEA002068
:103F90004CEA012121FA03FCB0EB0C0C0FD412F017
:103FA000FE0F36D05FEA4C001DD5001240EBC25028
:103FB00038BF70471CF03F0F18BF70470BE0A2F1ED
:103FC00001025FEA1C2040EBC25038BF70471CF072
:103FD0007F0F18BF7047C3F12003994014BF401EE4
:103FE00020F00100704780084FEA122308BF704795
:103FF000B0FA80FCA2EB0C02CCF1280C60FA0CF0B9
:1040000093EA122F04BF00EBC25070474FEAC3700F
:104010007047130A5FEADC1008BF7047F6E79CEAB6
:10402000026F04D010EA5C0F08BF0020704710B583
:10403000FFF73BFF40DFF63E81F000407047202055
:10404000200043202000482020004D5031003347FD
:1040500032004D5032004D5033004D5034004D343D
:104060004100464C4100574D4100414343004C52F2
:1040700043004D4944004A5045004F4747004A50CD
:104080004700464F4E0033475000424D50005359B1
:10409000530054585400574156000000BC400008DB
:1040A00000000020F40000006C010008B04100088E
:1040B000F4000020DC1200008801000800A24A047D
:1040C00000000000000000000102030406070809C8
:1040D00000000000000000000000000001000000DF
:1040E00000000000000000002A00000000000000A6
:1040F00001000000000000000000000000000000BF
:104100004A40000852400008564000085A40000843
:104110005E400008864000084E4000087A400008D3
:104120006A40000866400008964000087240000897
:10413000624000086E4000089240000842400008BB
:10414000464000083E400008824000088E400008BB
:104150008A4000087E400008764000080000000009
:10416000000000000000000000000000000000004F
:10417000000000000000000000000000000000003F
:104180000000000000000000000000009640000851
:104190001900000000000000000000000000000006
:1041A00001020304010203040607080902040608C9
:0400000508000131BD
:00000001FF
